:100000000C94B7020C94FE020C94FE020C94FE02B7
:100010000C94FE020C94FE020C94FE020C94FE0260
:100020000C94FE020C94FE020C94FF0F0C943B0FF8
:100030000C94C71A0C94FE020C94FE020C94FE025F
:100040000C94FE020C94FE020C94FE020C94FE0230
:100050000C94FE020C94DC100C94FE020C94FE0234
:100060000C94FE020C948D200C9465200C94FE02DE
:100070000C94FE020C94FE020C94FE020C94FE0200
:100080000C94FE020C94FE020C94FE020C94FE02F0
:100090000C94FE020C94FE020C94FE020C94FE02E0
:1000A0000C94FE020C94FE020C94FE021503150340
:1000B000280328031E032803280328031503150318
:1000C00023032803280323033E083E087808780802
:1000D000CF08760A760A760AEB08C909DA09DA093E
:1000E000560D7D0D130F7D0D130FC50DE80D130F6C
:1000F000D70EEA0E05010980A101850319012AB76F
:1001000000150126B700950175108100C0050C0986
:1001100001A101850419012AA002150126A002955A
:100120000175108100C005010906A10185050507BB
:1001300019E029E7150025019508750181020507D9
:10014000190029EF1500250195F0750181020508B8
:100150001901290595057501910295017503910114
:10016000C005010906A101050719E029E7150025C9
:10017000019508750181029501750881010507192E
:100180000029FF150026FF00950675088100050867
:1001900019012905950575019102950175039101D4
:1001A000C009023B00020100A0FA0904000001039B
:1001B000010100092111010001224000070581030E
:1001C00008000A09040100010300000009211101CF
:1001D0000001226D000705820320000A12010002BF
:1001E00000000008616E60600100010200010E0362
:1001F0004E004900420042004C004500000012033E
:100200006E0075006C006C00620069007400730081
:1002100000000403090400047F3F1F6432146432A9
:1002200014783C1E1E140A05000029001E001F0041
:1002300020002100220023002400250026002700A2
:100240002D002E002A004A0068002B0014001A001E
:100250000800150017001C0018000C001200130005
:100260002F00300031004C006900390004001600F6
:10027000070009000A000B000D000E000F003300FC
:100280003400000028004B006A00E1001D001B0044
:100290000600190005001100100036003700380074
:1002A000E500000052004E006B00E000E300E200B9
:1002B000000000002C00000000000151E600E400F6
:1002C0005000000051004F000000005C3A003B006D
:1002D0003C003D003E003F00400041004200430022
:1002E0004400450001004D00C35C01000100010015
:1002F00001000100010001000100010001000100F6
:1003000001000100010001000100010001000100E5
:1003100001000100010001000100010001000100D5
:1003200001000000010001000100010001000100C6
:1003300001000100010001000100010001000100B5
:1003400001000000010001000100010001000100A6
:100350000000000001000000000001000100010099
:1003600001000000010001002223252628292A2C53
:100370002D2F3032333536383A3B3D3E40424345EF
:1003800047494A4C4E5051535557595A5C5E60622A
:10039000646668696B6D6F71737577797B7D7F813A
:1003A000838587898A8C8E90929496989A9C9E9F3A
:1003B000A1A3A5A7A8AAACAEAFB1B3B4B6B8B9BB58
:1003C000BCBEBFC1C2C3C5C6C7C9CACBCCCDCED0C7
:1003D000D1D2D2D3D4D5D6D7D7D8D9D9DADADBDBB4
:1003E000DBDCDCDCDCDCDDDDDDDDDCDCDCDCDCDB4B
:1003F000DBDBDADAD9D9D8D7D7D6D5D4D3D2D2D194
:10040000D0CECDCCCBCAC9C7C6C5C3C2C1BFBEBC86
:10041000BBB9B8B6B4B3B1AFAEACAAA8A7A5A3A1F7
:100420009F9E9C9A98969492908E8C8A89878583B9
:10043000817F7D7B79777573716F6D6B6968666499
:1004400062605E5C5A5957555351504E4C4A494769
:10045000454342403E3D3B3A3836353332302F2D0E
:100460002C2A29282625232200010101010101014E
:100470000101020202020202020202030303030359
:100480000303030404040404040405050505050628
:1004900006060606070707070708080808090909E6
:1004A000090A0A0A0B0B0B0C0C0C0D0D0D0E0E0E8F
:1004B0000F0F0F1010111111121213131414151520
:1004C00016161717181819191A1A1B1B1C1D1D1E92
:1004D0001E1F2020212222232424252626272829E6
:1004E000292A2B2C2D2D2E2F303132323334353614
:1004F0003738393A3B3C3D3E3F4041424344454614
:100500004748494A4C4D4E4F5051535455565859EF
:100510005A5B5D5E5F616264656668696B6C6D6F96
:100520007072737577787A7B7D7E80828385878809
:100530008A8C8E8F91939596989A9C9EA0A2A3A543
:10054000A7A9ABADAFB1B3B5B7BABCBEC0C2C4C644
:10055000C9CBCDCFD1D4D6D8DBDDDFE2E4E7E9EB00
:10056000EEF0F3F5F8FAFDFFFFAA7F5540001124E5
:100570001FBECFEFDAE0DEBFCDBF04B603FE27C05B
:100580008091FC039091FD03A091FE03B091FF03C5
:100590008730904BA740B04BD1F41092FC031092DF
:1005A000FD031092FE031092FF0314BE84B7877FF1
:1005B00084BF0FB6F894A8958091600088618093FD
:1005C0006000109260000FBEE0E0F8E3099523E0C0
:1005D000A8E8B1E001C01D92AC3FB207E1F711E01D
:1005E000A0E0B1E0ECE4F3E402C005900D92A8387D
:1005F000B107D9F70E9453110C94A4210C94000068
:10060000FC01808191810E94D417292F2F70E92F3E
:10061000E295EF704E2F50E0FA013297EE30F1057F
:10062000B8F4EA5AFF4F0C945421803F99F018F423
:10063000883E70F40FC0843F59F40CC0883E50F0DF
:10064000813F31F407C0822F86958695869508955F
:1006500080E0089581E0089580E090E00E945F1BB3
:1006600080E090E00E94491B10927F0210927E026F
:100670000C94A2161092800280910001882331F020
:1006800080918F0187FF02C08EE101C086E0E5EF17
:10069000F1E0DF011D928A95E9F70C942C03882381
:1006A00041F08095909180028923809380020C9480
:1006B000A2160895882339F090918002892B8093A7
:1006C00080020C94A2160895882379F19CEF980F6C
:1006D000913A30F4682F83EF91E00E94EC1A14C035
:1006E00090E2980F983090F4877021E030E0A901F3
:1006F00002C0440F551F8A95E2F7CA018095909178
:1007000080028923809380020C94A2169BE5980FA7
:10071000933020F480E090E00C945F1B885A87317E
:1007200020F480E090E00C94491B0895CF93882337
:1007300009F46DC09CEF980F913AC8F5C82F8091CD
:1007400000018823E1F080918F0187FF18C0EC2F12
:10075000E695E695E695F0E0ED50FE4F8281282F74
:1007600030E04C2F477081E090E002C0880F991F65
:100770004A95E2F782239323892B61F412C0E5EFB7
:10078000F1E08BEF91E02191C21721F08E179F07C6
:10079000D1F707C06C2F83EF91E00E94EC1A0E9402
:1007A000A2166C2F83EF91E00E94141B13C090E2FD
:1007B000980F983090F4877021E030E0A90102C0D2
:1007C000440F551F8A95E2F7CA0190918002892B48
:1007D00080938002CF910C94A216EBE5E80FE330F2
:1007E00040F4F0E0E75EFE4F808190E0CF910C9402
:1007F0005F1B885A873158F4E82FF0E0EE0FFF1F97
:10080000E45EFE4F80819181CF910C94491BCF9182
:1008100008951F93CF93DF93CDB7DEB767970FB6D9
:10082000F894DEBF0FBECDBF4B8B5C8B6D8B7E8B88
:100830008F8B611110927F0286E09E01235F3F4FF4
:10084000D901E82F1D92EA95E9F795E0FE0173962C
:10085000D90101900D929A95E1F79C894E895F89A3
:100860007B897D879E876F87598B488BF901DE01D5
:10087000179601900D928A95E1F7CE0107960E9496
:10088000F31781113EC086E0FE013796DE01119616
:1008900001900D928A95E1F7FF81E8856A857B8555
:1008A0006115710531F0EF3F31F481E0FF3F19F43C
:1008B00003C081E001C080E080FD23C020914B0295
:1008C00030E0C90101968770992740917C0250E081
:1008D0008417950779F1F983EA837D836C8396E029
:1008E000929FD001939FB00D1124A45BBD4FFE01D8
:1008F000319601900D929A95E1F780934B020E94F8
:10090000021716E080917C0290914B028917F9F052
:10091000189FC0011124845B9D4F0E94F317882308
:10092000B1F080917C0290E00196877099278093C6
:100930007C02E8CF0E943A0310924B0210927C0294
:10094000E5E4F2E086E0DF011D928A95E9F767961B
:100950000FB6F894DEBF0FBECDBFDF91CF911F91D0
:10096000089581FF02C0809801C0809A88980895F8
:100970008F929F92AF92BF92CF92DF92EF92FF92AF
:100980000F931F93CF93DF93CDB7DEB72A970FB6A0
:10099000F894DEBF0FBECDBFFC01D08011818381F2
:1009A0009481892B39F01F3F39F491E00FEFD01279
:1009B00003C003C091E001C090E090FDF7C57F0146
:1009C00085E0DE01169601900D928A95E1F7F70118
:1009D00022818E819F81222349F00E947817082F5F
:1009E000682F8E819F810E94C01903C00E949419B4
:1009F000082FE12FF0E015E0019FE00DF11D11241B
:100A000064E0EE0FFF1F6A95E1F7ED0DF11DEE0FAB
:100A1000FF1FE85DFD4F05911491043F2CE512077F
:100A200059F190F4093D8CE51807E9F00A3D9CE581
:100A30001907A1F1083DECE51E07B1F506E221EE2C
:100A400041EE68ED7CE514C0063FFCE51F0701F1AF
:100A5000C8F0073F3CE5130739F507E225EE46EEFF
:100A600067EF7CE505C007E225EE45EE69ED7CE524
:100A7000C7010E94811B7BC506E221EE40EE64EFB8
:100A80007CE5F6CF07E225EE44EE65EF7CE5F0CF9E
:100A900006E221EE42EE66EF7CE5EACF08E221E0D5
:100AA00045EE6AED7CE5E4CFF7018281882309F405
:100AB0003EC11092B1020230FCE51F0708F421C1CB
:100AC00006312CE5120730F0C8018B5F9C45099771
:100AD00008F017C10E9420169093900180938F0117
:100AE00000313CE5130709F4C3C008F041C00830E9
:100AF0009CE5190709F49AC0F0F40430FCE51F07DF
:100B000009F487C068F402303CE5130709F477C0A4
:100B100003301C4509F0E5C080918F01826076C0EA
:100B200006309CE5190709F46EC008F07BC080917F
:100B30008F0188606BC00C30FCE51F0709F485C08D
:100B400068F40A303CE5130709F474C008F079C072
:100B50000E943A0380918F01806858C00E309CE556
:100B6000190709F476C008F07FC080918F018BC00F
:100B70000C3FFCE51F0709F44FC018F503313CE5B5
:100B8000130709F47DC078F401319CE5190709F4D5
:100B900073C002311C4509F0A4C00E943A03809141
:100BA0008F018F7733C00531FCE51F0709F472C050
:100BB00008F486C00B3F1C4509F093C0809190015A
:100BC0003EC001158DE5180709F45FC058F40E3FCB
:100BD000ECE51E0709F444C008F43FC08091900181
:100BE00082602DC002302DE5120709F475C008F4AB
:100BF0005DC003301D4509F074C060E06EC0809197
:100C00008F01816003C080918F01806180938F018B
:100C100068C080918F0111C08091900182608093A3
:100C200090015FC080918F018062F0CF80918F0131
:100C30008064ECCF80918F0188608460E7CF816011
:100C4000EECF80918F018E7FE1CF80918F018D7FDC
:100C5000DDCF80918F01877FD9CF8091900118C01F
:100C6000809190018D7FDBCF80918F018F7ECECFE1
:100C700080918F018F7DCACF80918F018F7BC6CFEE
:100C800080918F01877F8B7FC1CF809190018D7F75
:100C90008E7FC5CF80918F0182FB222720F991E0C2
:100CA000922790FB82F990FB83F9B0CF809190015D
:100CB000982F909591708E7F892B90FB81F9AFCF03
:100CC0000E943A0380918F0187FB222720F991E04F
:100CD000922790FB87F99ACF61E08EE090E00E9426
:100CE000EA2060918F011091900184E090E00E94D1
:100CF000EA20612F82E290E00E94EA200E943A03FB
:100D000036C48091800206312CE5120709F58A7AF3
:100D100091E009F490E090938A01882311F065E353
:100D200001C069E283EF91E00E94141B0EC00631FE
:100D30001C4509F04BC180918A01882309F434C411
:100D400065E383EF91E00E94EC1A0E94A2160FC4A3
:100D500082720D3C9CE5190709F4C2C008F045C039
:100D6000073CFCE51F0709F4A7C0D8F4043C3CE5A8
:100D7000130709F497C030F4033CECE51E0709F4AF
:100D80006CC0CEC0053CFCE51F0709F490C0063CD2
:100D90002CE5120709F0C4C045E050E26EE070E2B5
:100DA000A3C00A3C3CE5130709F490C078F4083C62
:100DB000ECE51E0709F485C0093CFCE51F0709F0B6
:100DC000AFC049EF5FE16DEE7FE18EC00B3C2CE5DB
:100DD000120709F480C00C3C3CE5130709F0A0C0E1
:100DE00049E55EE16AE67EE17FC0023D8CE51807D9
:100DF00009F486C0A0F40F3CECE51E0709F47AC0A4
:100E000008F475C0003D2CE5120709F476C0013DD9
:100E10003CE5130709F084C06EE089E079C0053D28
:100E20008CE5180709F472C068F4033DECE51E0771
:100E300009F469C0043DFCE51F0709F071C061E0D9
:100E400088E16BC0063D2CE5120709F464C00E353D
:100E50003DE5130709F48BC363C08091950180FFC2
:100E60001BC08E7F809395016091950170919601D2
:100E700080919701909198010E94471E10928D02D7
:100E80008FEF90E7E2E081509040E040E1F700C052
:100E900000000E94451C6BC381608093950161E056
:100EA00086953BC042E550E26BE570E21DC04BE524
:100EB00050E262E570E218C04EE050E265E070E298
:100EC00013C04DEE5FE169EF7FE10EC045ED5FE1DC
:100ED00061EE7FE109C041EE5FE165ED7FE104C0B5
:100EE0004AE65EE169E57EE10E94291C40C361E0BB
:100EF00081E013C065E082E00BC068E086E008C0D6
:100F000064E18FE005C067E185E102C062E289E14A
:100F10000E94171C2CC361E083E20E94172027C3A4
:100F20000B35FDE51F0709F44CC058F401153CE5ED
:100F30001307C1F00F3D1C4509F048C00E9431164F
:100F400016C30C359DE5190709F43DC00D351D4547
:100F500009F03CC08091900182FB882780F991E0E4
:100F6000892732C00E943A03FFEF04E31CE0F150EE
:100F700000401040E1F700C0000081E08093E000F5
:100F800080E28093D8001092C9008FE19EE401971F
:100F9000F1F700C0000087E090EBDC018093FC03D8
:100FA0009093FD03A093FE03B093FF039CE088E1C0
:100FB0000FB6F894A895809360000FBE90936000E0
:100FC000FFCF81E001C080E00E94E816F701828136
:100FD00000811181882349F0C8010E947817D82E1A
:100FE000682FC8010E94C01904C0C8010E9494194A
:100FF000D82EE12FF0E015E0D19EE00DF11D112477
:1010000034E0EE0FFF1F3A95E1F7E00FF11DEE0F10
:10101000FF1FE85DFD4F859194910E9497148C010C
:10102000982EF701B280A580A2945FE0A52280915E
:101030007D02877099F0BB2089F0812F807F8034FA
:1010400021F080E2800F883048F082E00E941A1A76
:1010500080917D028770DD24D3948111D12CC12E23
:10106000C2942FE0C2228C2D90E08C30910508F0C4
:101070003DC2FC01EC59FF4F0C945421812F807F1D
:101080001F70882311F01295107FBB20B9F0112337
:1010900009F417C280E2800F883010F0911006C06A
:1010A00080918002182B1093800205C080917F02EE
:1010B000182B10937F020E94A21603C2802F0E9459
:1010C0006403112309F412C2005E1095083010F079
:1010D000911006C08091800218231093800205C0F1
:1010E00080917F02182310937F020E94A216FEC1F6
:1010F000812F807F1F70803211F01295107F992010
:1011000021F0F1E09F1601F12EC0BB20A1F08091EB
:101110008102AA2071F001E0A0120BC0182B90915F
:10112000900192FDE3C1181709F4E0C11093810208
:10113000DDC1812B10C0AA2021F021E0A21609F404
:10114000D5C10E949C1627C0BB2041F035E03A155E
:1011500008F4CCC1812F0E945A03C8C184E08A15CB
:1011600008F4C4C118C0BB2049F0AA2099F3F701C4
:10117000858180FFA6C18F708583ECCFAA2059F0AE
:10118000093309F0B0C1FFEF17EE23E0F150104032
:101190002040E1F7A6C1812F0E944F03A7C1812FF4
:1011A00086958695837019F0813059F09FC1BB20D8
:1011B00019F0C801937002C080E090E00E945F1BAC
:1011C0009DC1BB2019F0C801937002C080E090E07F
:1011D0000E94491B93C1812F837009F069C0B1102F
:1011E00089C1902F929596959770990F990F802F9E
:1011F0008F70882E912CA12CB12C092E04C0880C44
:10120000991CAA1CBB1C0A94D2F704FF12C04FE021
:1012100050E060E070E004C0440F551F661F771F68
:101220009A95D2F7DB01CA0180959095A095B0956B
:1012300003C080E090E0DC0116951695412F4370C5
:10124000423019F1C8F4009182021091830220917A
:10125000840230918502413059F088299929AA29C0
:10126000BB29BC01CD0160237123822393230AC0D3
:10127000802A912AA22AB32ABC01CD0168297929A2
:101280008A299B290E94581A35C188299929AA2997
:10129000BB29009182021091830220918402309137
:1012A0008502BC01CD016027712782279327EACFF1
:1012B000BB2019F0812F817001C08695882309F425
:1012C00019C1902F929596959770990F990F802F2D
:1012D0008F70882E912CA12CB12C092E04C0880C63
:1012E000991CAA1CBB1C0A94D2F704FF12C04FE041
:1012F00050E060E070E004C0440F551F661F771F88
:101300009A95D2F7DB01CA0180959095A095B0958A
:1013100003C080E090E0DC0116951695412F4370E4
:101320004230D9F068F50091C8011091C9012091AF
:10133000CA013091CB01413059F088299929AA2955
:10134000BB29BC01CD0160237123822393231EC0DE
:10135000802A912AA22AB32A13C088299929AA2966
:10136000BB290091C8011091C9012091CA01309197
:10137000CB01BC01CD01602771278227932706C0CE
:10138000BC01CD01682979298A299B290E94EB1982
:10139000B1C01F70BB2039F0812F0E94371A802FF7
:1013A0000E945A03A7C0802F0E944F03812F0E94E2
:1013B000F519A0C0802F32EF931609F440C03915FB
:1013C00038F090EF991661F0E1EF9E1699F174C034
:1013D000F3EF9F16D9F124EF921609F44EC06CC0BA
:1013E000BB2019F134E03A1508F480C01F7181E088
:1013F00090E0A0E0B0E0AC01BD0104C0440F551F77
:10140000661F771F1A95D2F78091C8019091C90184
:10141000A091CA01B091CB018A019B01082719272D
:101420002A273B27C901B80125C025E02A1508F461
:101430005DC0DCCFBB2029F0812F8F7130C0BB2075
:10144000D9F3812F8F710E94F51950C0BB2079F01C
:101450001F7181E090E0A0E0B0E0BC01CD0104C0CC
:10146000660F771F881F991F1A95D2F703C060E097
:1014700070E0CB010E94EB1939C0BB2099F01F71BD
:10148000812F0E94371A8091900182FD07C038E0B9
:10149000139FC0011124836080937D02812F0E94DD
:1014A000371A24C081E00E941A1A81E08A15F0F4EC
:1014B00082E00E941A1A1AC0BB2039F0AA2009F44F
:1014C000BBCF802F0E94960311C0AA2009F4B9CF88
:1014D000893349F49FEFE7EEF3E09150E040F040AC
:1014E000E1F700C00000802F0E94640388EF8C0D9C
:1014F000843020F40E94751B0E94B104DD20A9F005
:1015000080917D0280FD11C0F7011282859585953D
:1015100085950E94371AC7010E94B80480917D0208
:101520008595859585950E94F51985E0F701DE0181
:10153000119601900D928A95E1F789819A810E9416
:101540009419EA81F0E005E0809FE00DF11D11247F
:1015500084E0EE0FFF1F8A95E1F78981E80FF11D06
:10156000EE0FFF1FE85DFD4F859194911FC08091A4
:101570007D028770D9F0F70182818823B9F082E07B
:101580002A960FB6F894DEBF0FBECDBFDF91CF9184
:101590001F910F91FF90EF90DF90CF90BF90AF9091
:1015A0009F908F900C941A1A69E2CBCB2A960FB6B3
:1015B000F894DEBF0FBECDBFDF91CF911F910F9189
:1015C000FF90EF90DF90CF90BF90AF909F908F9063
:1015D00008952091E4003091E50095E64091EC00FB
:1015E000842F817040FF23C08091E80080FD1DC0E2
:1015F0008091BE01882399F0853099F08091EB00AD
:1016000085FD11C04091E4005091E5002417350795
:1016100029F3915011F09A01E1CF84E0089582E01E
:10162000089583E0089581E0089580E00895409151
:10163000E80042FFDDCF0895EF92FF920F931F93D2
:10164000CF93DF937C018B010E94E90A811119C0BD
:10165000E70101151105A1F08091E80085FD0AC0A0
:101660008091E8008E778093E8000E94E90A882341
:1016700081F307C089918093F10001501109E9CFEE
:1016800080E0DF91CF911F910F91FF90EF9008952F
:101690008091C00187FF11C08091E80082FD05C0E4
:1016A0008091BE018111F8CF11C08091E8008B7745
:1016B0000BC08091BE01882349F08091E80080FF33
:1016C000F8CF8091E8008E778093E8000895982FF6
:1016D000973068F59093E900981739F07091EC0015
:1016E0002091ED005091F00003C0242F762F50E0A0
:1016F00021FD02C09F5FECCF3091EB003E7F309325
:10170000EB003091ED003D7F3093ED003091EB0028
:1017100031603093EB007093EC002093ED00509318
:10172000F0002091EE0027FDE5CF80E008958F7056
:101730008093E90081E008952091C6013091C701AE
:101740002617370748F06115710539F42091E80034
:101750002E772093E80001C0B901FC0120E061155B
:10176000710579F18091BE018823F1F18530F1F1A5
:101770008091E80083FD3CC08091E80082FD2EC08E
:101780008091E80080FFEBCF2091F3008091F20080
:1017900090E0922B6115710551F08830910538F475
:1017A00021912093F100615071090196F3CF21E05E
:1017B000089709F020E08091E8008E778093E80098
:1017C000CECF2111CFCF0AC08091BE01882361F016
:1017D000853061F08091E80083FD0AC08091E800C7
:1017E00082FFF2CF80E0089582E0089583E00895BB
:1017F00081E00895089580919B0108959091BE0124
:10180000943031F58093910170939301609392012C
:1018100082E08093E9008FEF9091E800815095FD80
:1018200006C095ED9A95F1F700008111F5CF8091F2
:10183000E80085FF0DC040E050E063E070E081E922
:1018400091E00E941C0B8091E8008E778093E80065
:101850000895BC0184E00C94FE0BBC0183E00C9461
:10186000FE0BCF93DF9320910001222339F02091CA
:101870008F0127FF03C060E222E002C068E021E0A0
:101880002093E9002FEF3091E800215035FD06C08C
:1018900035ED3A95F1F700002111F5CF2091E800E0
:1018A00025FF1DC0EC0180910001811105C040E0C1
:1018B00050E068E070E003C070E040E050E0CE012E
:1018C0000E941C0B8091E8008E778093E80080E2F4
:1018D000FE01ACE9B1E001900D928A95E1F7DF914C
:1018E000CF9108951F93CF93DF93CDB7DEB7AA971B
:1018F0000FB6F894DEBF0FBECDBFE0ECF1E08091F3
:10190000F100819321E0E83CF207C9F78091C10121
:10191000833009F460C030F4813071F0823009F412
:101920009AC0B1C08A3009F486C08B3009F46BC00C
:10193000893009F0A8C020C08091C001813A09F027
:10194000A2C08091E800877F8093E8008091C40165
:101950009091C501892B21F460E28CE991E003C0EC
:1019600060E080E090E070E00E949C0B8091E800D5
:101970008B778093E80087C08091C001813209F0A5
:1019800082C08091C4019091C501029708F07BC08C
:101990008091E800877F8093E8008091E80082FDD5
:1019A00005C08091BE018111F8CF6DC02091F30078
:1019B0008091F20090E0922B029729F48091F1003F
:1019C0008B7F813021F48091F10080939B01809185
:1019D000E8008B7754C08091C001813A09F053C070
:1019E0008091C4019091C501892B09F04CC0809170
:1019F000E800877F8093E8008091E80080FFFCCFBB
:101A00008091000137C08091C0018132E1F5809161
:101A1000C4019091C501892BB1F58091E800877FC1
:101A20008093E8000E94480B8091C20180930001DE
:101A30000E943A0328C08091C001813221F5809133
:101A4000E800877F8093E8000E94480B8091C301E3
:101A500080939A0118C08091C001813AA1F48091CD
:101A6000E800877F8093E8008091E80080FFFCCF4A
:101A700080919A018093F1008091E8008E778093A5
:101A8000E8000E94480B8091E80083FFCCC1809160
:101A9000C0019091C101492F50E04A30510508F032
:101AA000C2C1FA01E059FF4F0C945421803821F053
:101AB000823809F0B8C108C08091BC019091BD0185
:101AC000992389F082600FC08091C4018F708730A4
:101AD00008F0A9C18093E9008091EB0085FB88277D
:101AE00080F91092E9009091E800977F9093E800C8
:101AF0008093F1001092F10065C1282F2D7F09F02D
:101B000092C1882319F0823061F08DC18091C201A9
:101B1000813009F088C1933009F080E08093BD01E5
:101B20002EC08091C20181112AC08091C4018F70A2
:101B30002FEF280F263008F076C18093E90020911E
:101B4000EB0020FF1CC0933021F48091EB008062F9
:101B500014C09091EB0090619093EB0021E030E095
:101B6000A90102C0440F551F8A95E2F74093EA008D
:101B70001092EA008091EB0088608093EB00109255
:101B8000E9008091E800877F20C181114CC110914C
:101B9000C2011F778091E3008078812B8093E3005E
:101BA0008091E800877F8093E8000E94480B809135
:101BB000E80080FFFCCF8091E30080688093E30021
:101BC000111102C082E001C083E08093BE012BC1ED
:101BD0008058823008F027C18091C2019091C301E2
:101BE0008C3D53E0950779F583E08A838AE2898307
:101BF0004FB7F894DE01139620E03EE051E2E32F68
:101C0000F0E050935700E49120FF03C0E295EF709D
:101C10003F5FEF708E2F90E0EA3010F0C79601C062
:101C2000C0968D939D932F5F243149F74FBF8091CC
:101C3000E800877F8093E8006AE270E0CE010196B9
:101C40000E949C0BAEC04091C4015091C501292F48
:101C5000332723303105A9F068F42130310509F428
:101C6000F1C02230310509F0DEC08BE390E0E1EAFB
:101C7000F1E044C02132310521F12232310571F108
:101C8000D2C0992781309105A1F058F0029709F050
:101C9000CAC0EEEEF1E0E4918E2F90E0EEEEF1E0BE
:101CA0002AC0E2E1F2E0E4918E2F90E0E2E1F2E07E
:101CB00022C0EEEFF1E0E4918E2F90E0EEEFF1E044
:101CC0001AC04115510509F4C2C04130510509F04F
:101CD000AAC089E090E0ECECF1E010C0411551059C
:101CE00009F4BAC04130510509F09DC08DE690E07D
:101CF000E4EFF0E003C0009709F495C02091E800FC
:101D0000277F2093E8002091C6013091C7018217F8
:101D1000930708F49C0140E02115310589F1809179
:101D2000BE01882309F43DC08530D9F18091E800D7
:101D300083FD37C08091E80082FD2FC08091E800CC
:101D400080FFEACF4091F3008091F20090E0942B65
:101D50002115310559F08830910540F444914093A4
:101D6000F1003196215031090196F2CF41E00897F8
:101D700009F040E08091E8008E778093E800CCCFB6
:101D80004111CDCF0AC08091BE01882351F085302A
:101D900041F08091E80083FD04C08091E80082FF5B
:101DA000F2CF8091E8008B778093E8003CC08038C8
:101DB000D1F58091E800877F8093E8008091BF0192
:101DC0008093F1008091E8008E778093E8000E9474
:101DD000480B29C0811127C08091C2019091C30195
:101DE0009927029704F58091E800877F8093E800A7
:101DF0001091C2011093BF010E94480B111106C03F
:101E00008091E30087FD02C081E001C084E08093FF
:101E1000BE0142E061EC81E00E94670B42E261ECAE
:101E200082E00E94670B8091E80083FF1AC08091D6
:101E3000E800877F8093E8008091EB0080628093C8
:101E4000EB000FC082E190E0ECEDF1E057CF89E0CC
:101E500090E0E3EBF1E052CF80E490E0E1E6F1E0E6
:101E60004DCFAA960FB6F894DEBF0FBECDBFDF915F
:101E7000CF911F9108951F920F920FB60F921124C8
:101E80002F933F934F935F936F937F938F939F9382
:101E9000AF93BF93CF93DF93EF93FF93C091E9008C
:101EA000CF708091EC00D82FD17080FDD0E81092D7
:101EB000E9008091F000877F8093F00078940E9481
:101EC000720C1092E9008091F00088608093F0001D
:101ED000CD2BCF70C093E900FF91EF91DF91CF91AF
:101EE000BF91AF919F918F917F916F915F914F9132
:101EF0003F912F910F900FBE0F901F901895E8ED16
:101F0000F0E080818E7F80831092E2001092DA00F0
:101F10001092E100A0EEB0E08C9181608C93808102
:101F20008F77808319BCA7EDB0E08C918E7F8C9366
:101F300080818F7E8083109294010895CF92DF92EA
:101F4000EF92FF920F931F93CF93DF93C8EDD0E0F2
:101F500088818F7E8883E7EDF0E0808181608083D7
:101F600084E082BF81E08093940188818E7F8883A2
:101F700002EE10E0F80110821092DA0081EEC82E15
:101F8000D12CF601108288818F77888388818068C0
:101F9000888388818F7D888319BC1092BE0110923E
:101FA000BF011092BD011092BC0190EEE92EF12C00
:101FB000F70180818B7F808388818160888342E004
:101FC00060E080E00E94670BF60180818E7F808355
:101FD000F801808181608083808188608083F7013F
:101FE00080818E7F8083888180618883DF91CF911B
:101FF0001F910F91FF90EF90DF90CF9008951F9267
:102000000F920FB60F9211242F933F934F935F932C
:102010006F937F938F939F93AF93BF93EF93FF93B0
:102020008091E10082FF09C08091E20082FF05C03B
:102030008091E1008B7F8093E1008091DA0080FF46
:102040002AC08091D80080FF26C08091DA008E7F60
:102050008093DA008091D90080FF18C080E189BDAB
:1020600082E189BD09B400FEFDCF81E08093BE010D
:102070008091940181110FC00E947F0F0E949E0FDA
:102080008091E20084608093E20005C019BC109248
:10209000BE01109294018091E10080FF17C08091F1
:1020A000E20080FF13C08091E2008E7F8093E20007
:1020B0008091E20080618093E2008091D80080628C
:1020C0008093D80019BC85E08093BE018091E10027
:1020D00084FF36C08091E20084FF32C080E189BD78
:1020E00082E189BD09B400FEFDCF8091D8008F7DCB
:1020F0008093D8008091E1008F7E8093E1008091F1
:10210000E2008F7E8093E2008091E2008160809304
:10211000E2008091BF01882311F084E007C0809124
:10212000E30087FD02C081E001C083E08093BE012F
:102130000E943A030E94751B0E94B1040E942F1C4A
:102140008091E10083FF27C08091E20083FF23C0DC
:102150008091E100877F8093E10082E08093BE015F
:102160001092BF018091E1008E7F8093E100809109
:10217000E2008E7F8093E2008091E2008061809394
:10218000E20042E060E080E00E94670B8091F00096
:1021900088608093F000FF91EF91BF91AF919F9184
:1021A0008F917F916F915F914F913F912F910F9000
:1021B0000FBE0F901F90189578941F920F920FB634
:1021C0000F9211248F939F93AF93BF9380918B01B4
:1021D00090918C01A0918D01B0918E010196A11D6D
:1021E000B11D80938B0190938C01A0938D01B093CE
:1021F0008E01BF91AF919F918F910F900FBE0F9065
:102200001F9018952FB7F89480918B0190918C01B5
:10221000A0918D01B0918E012FBF089580E00895A7
:1022200090918F0192FF0DC0282F2871283019F44A
:10223000877F846006C0282F2471243011F48B7F9F
:10224000886093FF0DC0282F2871283119F4877EEC
:10225000846106C0282F2471243111F48B7E88619B
:102260002091900120FF0DC0382F3871383019F4BB
:10227000877F816006C0382F3171313011F48E7F35
:10228000886021FF0DC0282F2871283119F4877E1E
:10229000816106C0282F2171213111F48E7E886161
:1022A00094FD877E0895CF93DF93CDB7DEB72E9749
:1022B0000FB6F894DEBF0FBECDBF84B7877F84BF53
:1022C0000FB6F894A89580916000886180936000B3
:1022D000109260000FBE90E080E80FB6F8948093F3
:1022E0006100909361000FBE85B7806885BF85B798
:1022F000806885BF8EE091E1909389018093880189
:102300000E947F0F0E949E0F8091E2008460809364
:10231000E20078948091BE018823A1F01091E90039
:102320001F709091EC00892F817090FD80E8182B30
:102330001092E9008091E80083FD0E94720C1F70EA
:102340001093E90082E084BD93E095BD9AEF97BDBC
:1023500080936E002EE431E0AAE4B1E061E070E029
:102360008D91E82FE295EF70F0E041A18F707B0135
:1023700002C0EE0CFF1C8A95E2F7C701842B81A3F3
:102380002A173B0769F7AAE4B1E061E070E08D919C
:10239000E82FE295EF70F0E092A18F70AB0101C0E1
:1023A000440F8A95EAF7842F8095892382A32A1700
:1023B0003B0769F743E551E0AEE4B1E061E070E06E
:1023C0008D91E82FE295EF70F0E021A18F708B01E5
:1023D00002C0000F111F8A95E2F7C801902F909557
:1023E000922391A392A1892B82A34A175B0741F7FD
:1023F0007AED472E71E0572EAAEDB1E0E0EDF1E065
:10240000119211921D921D924E165F06C9F780E03F
:1024100090E00E94E420893E9E4F11F00E94311608
:1024200082E090E00E94D6208093E8010E9420166E
:102430009093900180938F0183E090E00E94D620DA
:10244000682F70E080E090E00E94581A8091CC01E3
:10245000811136C080E090E00E94E420893E9E4FCA
:1024600021F00E9431160E947B1E88E090E00E94BD
:10247000DE2060939501709396018093970190936D
:1024800098016E7F71F40E947B1E88E090E00E94AC
:10249000DE2060939501709396018093970190934D
:1024A00098010E94341E10928D028091950180FF48
:1024B00004C060E086950E94172081E08093CC01E3
:1024C00025982D9A24982C9A83B185FB882780F92A
:1024D0001C9902C090E001C092E0892B8093E60134
:1024E00081E091E09093B5028093B402CC24C39430
:1024F000D12C812C912C5401839420E030E010E009
:10250000EAE4F1E080E090E0A601082E02C0440F6A
:10251000551F0A94E2F742235323082E02C0559513
:1025200047950A94E2F75081A52FA295AF70B0E0CD
:1025300092966C9192975F70760102C0EE0CFF1C30
:102540005A95E2F7442319F0A701462B03C0A701CF
:102550004095462392964C9301963196843091058E
:1025600099F60AE10A95F1F700C0D501C401022EDF
:1025700004C0880F991FAA1FBB1F0A94D2F77C01C1
:102580001C0120943094E0EDF1E08EE491E09C8712
:102590008B8760E0FE87ED8740815181AB85BC85EC
:1025A0007D91BC87AB87A72FA295AF70B0E09096C6
:1025B0008C9190E07F7002C0959587957A95E2F7AF
:1025C00080FD04C0CA018E299F2903C0CA0182214F
:1025D0009321918380833296AD85BE858D919C91A8
:1025E0004817590709F061E04E165F0699F6162B59
:1025F0002F5F3F4F2031310509F082CF112349F081
:10260000B1E0B093CF010E9402119093CE0180936C
:10261000CD018091CF018823E9F12091CD01309146
:10262000CE014FB7F89480918B0190918C01A091CD
:102630008D01B0918E014FBF821B930B0A9750F111
:102640008091D0019091D1019093DB018093DA01C8
:102650008091D2019091D3019093DD018093DC01B0
:102660008091D4019091D5019093DF018093DE0198
:102670008091D6019091D7019093E1018093E00180
:102680008091D8019091D9019093E3018093E20168
:102690001092CF01112359F08FB7F89440918B011C
:1026A00050918C0160918D0170918E018FBFE9EE88
:1026B000F1E0AAEDB1E000E010E0602F2D913D9136
:1026C0008191919182279327009779F170E0EE2410
:1026D000E394F12CAC014E215F21452B09F1798364
:1026E0006A832E213F2181E0232B09F480E08B8334
:1026F0000E9402118160782F9D838C8349815A81C9
:102700006B818D810E940904000F111FF801E751B0
:10271000FE4F80819181E826F926F182E0821AC07D
:102720007F5FEE0CFF1C7031A9F60F5F1F4F053065
:10273000110519F68FEF8E838F8318860E94021180
:102740008160782F9A8789874E815F8168858A8525
:102750000E94090480918D02882309F493C080911E
:102760008C02E0919501E695E81BE09388028230A7
:1027700059F4F0E0EC5DFD4FE4910E2F10E0E3EB37
:10278000EE2EEAE1FE2E59C0863059F4F0E0EF5DFE
:10279000FD4FE4910E2F10E073EAE72E7AE1F72E59
:1027A0004CC0893061F4E695F0E0E25EFD4FE491C3
:1027B0000E2F10E069EFE62E6DE1F62E3EC08F3051
:1027C00061F4E695F0E0E55EFD4FE4910E2F10E038
:1027D0005CE8E52E5DE1F52E30C0853159F4F0E07E
:1027E000E85EFD4FE4910E2F10E04EE3E42E4DE144
:1027F000F42E23C08831A1F0833249F4E6E1F2E0FF
:102800000591149133E6E32E3AE1F32E16C084329B
:1028100071F404EF11E02BE7E22E2CE1F22E0DC053
:1028200008E210E095EBE92E9CE1F92E06C000EDE0
:1028300017E082E6E82E8AE1F82E8091890288234B
:1028400061F0109289020E94021190938702809396
:10285000860210928B0210928A020E940211E0916D
:102860008602F09187028E1B9F0B8F3F9F4750F48B
:102870000E0F1F1F109387020093860286E892E0D6
:10288000F70109958091E601E82FEE0FEE0FE09336
:10289000E60183B185FB662460F8712C1C9903C0A6
:1028A00080E090E002C082E090E0862997298E2B9C
:1028B0008093E6018F70E82FF0E0ED5AFE4F908193
:1028C0008091E501890F843024F09091E4019F5FAD
:1028D00005C08D3F3CF49091E40191509093E40148
:1028E00021E001C020E0082E000C990B64E070E0AC
:1028F0000E9440218093E501222359F08FB7F8947C
:1029000040918B0150918C0160918D0170918E01ED
:102910008FBF0E94751B9091E701891709F4EDCDD7
:102920000E94751B8093E7010E94B104E6CDCF930E
:10293000DF938238910569F1B0F48133910509F490
:102940006FC048F48932910509F465C08A32910557
:1029500009F46BC08AC08533910509F457C08933E7
:102960009105B9F082C0833E910571F138F4803E43
:102970009105B1F0823E910511F177C0863E910537
:10298000B9F1873E9105C9F1843E910509F06DC00A
:1029900024C020918F0120FD53C021FD51C065C08E
:1029A00080918F0180FD46C08091900180FF48C0DA
:1029B00080918F0184FD3FC183EE90E03EC1809104
:1029C0008F0182FF3AC0F4CF80918F0182FD35C024
:1029D0008091900180FD34C0EBCF8091900181FF08
:1029E00035C080918F0184FD26C187EE90E025C11E
:1029F00080918F0183FF27C0F4CF80918F0183FDE9
:102A000022C08091900181FD21C0EBCF80918F0188
:102A100085FD1FC021C080918F0185FD1DC019C09B
:102A200080918F0186FD1BC01DC080918F0186FDA6
:102A300019C015C089E390E000C182EE90E0FDC0AE
:102A400080EE90E0FAC086EE90E0F7C084EE90E071
:102A5000F4C089E290E0F1C085E390E0EEC08AE244
:102A600090E0EBC081E390E0E8C0811532E5930788
:102A700008F069C0811541E5940728F0982F882750
:102A8000816F906ADAC0883E910568F5803E9105B5
:102A900008F0D3C0883A9105B8F4853A910548F01A
:102AA000855AE82FF0E0E75EFE4F808190E0906469
:102AB000C4C08130910509F4BBC008F4BCC08430A7
:102AC000910508F4B8C0B9C08F3B910508F0B3C0B8
:102AD000885AE82FF0E0EE0FFF1FE45EFE4F808182
:102AE00091819464AAC0811520E59207F0F09C01C1
:102AF00074E0369527957A95E1F7922F9370482FD9
:102B0000437021E030E002C0220F331F4A95E2F704
:102B10003C68392B8F70982F9695969540E2949F3C
:102B2000C0011124822B932B88C0811530E49307B8
:102B300018F09F70906A81C09C013A9521153F4121
:102B400008F47BC078C0EC01C11586E5D807E8F52C
:102B5000C11525E5D20748F08C2F0E9410118F7106
:102B600090E0982F8827906268C0C11534E5D3079C
:102B700028F09C2F8827846F906A5FC0AE01437055
:102B800055272C2F26952695C115D34578F481E03D
:102B900090E002C0880F991F4A95E2F740E2249F17
:102BA00090011124822B932B9C6847C081E090E018
:102BB00002C0880F991F4A95E2F740E2249F9001D6
:102BC0001124822B932B9A6838C0C1152AE5D207AD
:102BD000F8F4C11539E5D30790F08C2F8F700E945F
:102BE000101194E0D695C7959A95E1F7CF70D0E093
:102BF000DC2FCC27D0699E01282BC9011EC0C1152E
:102C000048E5D407C0F09C2F8827806F906A15C0D4
:102C1000CE0190568115904270F48D2F8F710E94D5
:102C20001011282F2F71CE0199279062922B05C089
:102C300081E090E002C080E090E0DF91CF910895C4
:102C4000CF9384E090E00E94D620C82F82E290E0EB
:102C50000E94D6202C2F30E0A901582BCA01CF9119
:102C6000089569EE7EEF80E090E00E94082160E028
:102C700082E090E00E94EA2060E083E090E00E9421
:102C8000EA20109282021092830210928402109223
:102C9000850260E084E090E00E94EA2060E082E249
:102CA00090E00E94EA2060E085E090E00E94EA2047
:102CB00060E086E090E00E94EA206FEF87E090E01D
:102CC0000E94EA2040E050E0BA0188E090E00E94D3
:102CD000FC2060E08DE090E00E94EA2040E050E0BF
:102CE000BA0188E190E00E94FC2060E087E190E07A
:102CF0000E94EA2040E050E0BA018CE190E00E949E
:102D0000FC2060E070E080E290E00E94082140E05A
:102D100050E0BA0188E190E00E94FC2040E050E0E1
:102D2000BA018FE090E00E94FC2040E050E0BA0140
:102D300083E190E00C94FC2080918102811110923B
:102D4000810208959091800280917F02892B2091C9
:102D50007E02982F922B9093F30180918102882319
:102D6000D9F0892B8093F30180910001882331F001
:102D700080918F0187FF02C08EE101C086E0E5EF00
:102D8000F1E090E0815028F021912223D9F39F5F58
:102D9000F9CF91110E949C16E091B402F091B50216
:102DA0003097A9F080910001882359F080918F011C
:102DB00087FF07C08091F3018093F40185E0809341
:102DC000F3010280F381E02D83EF91E009940895EF
:102DD000CF93C0919001C2FB992790F9981781F089
:102DE00080FBC2F9C093900160918F0184E090E074
:102DF0000E94EA206C2F82E290E0CF910C94EA20AE
:102E0000CF91089580917C0290914B02891719F01F
:102E10008F5F8770FBCF08950F931F93CF93DF933E
:102E200080914A0282958F7009F05DC080914702BF
:102E3000882309F458C080917C0210914B02609164
:102E4000450270914602C0914802D091490291E03A
:102E50006F3F09F090E0292F06E0811709F443C085
:102E6000209721F07F3F21F030E003C031E001C026
:102E7000322F90E030FD34C0089FF001099FF00D23
:102E80001124DF01A45BBD4F11963C9111973713BC
:102E900027C03C91361324C012963C9112973111F1
:102EA0001FC013964D915C9114974C1B5D0B483CD1
:102EB0005105B0F480914A028F70806180934A027C
:102EC000EF5AFD4F80818F708061808385E492E0AE
:102ED0000E94B804DF91CF911F910F910C940217BB
:102EE00001968770BACFDF91CF911F910F9108950E
:102EF0008F929F92AF92BF92DF92EF92FF920F93C9
:102F00001F93CF93DF938090C8019090C901A09048
:102F1000CA01B090CB01409182025091830260912E
:102F2000840270918502842A952AA62AB72ACFE1C5
:102F3000D0E025E0D22EE92EF12C082F10E0D501AB
:102F4000C4010C2E04C0B695A795979587950A9451
:102F5000D2F780FD04C0219790F780E019C0DC9E75
:102F6000F001DD9EF00D1124EE0DFF1D84E0EE0F4B
:102F7000FF1F8A95E1F7E00FF11FEE0FFF1FE85DDD
:102F8000FD4F859194910E949714019721F38C2F06
:102F9000DF91CF911F910F91FF90EF90DF90BF9045
:102FA000AF909F908F900895CF93DF93D82FC92F24
:102FB0000E947817EC2FF0E095E0899FE00DF11D5D
:102FC000112484E0EE0FFF1F8A95E1F7ED0FF11D4C
:102FD000EE0FFF1FE85DFD4F859194910E949714BD
:102FE000DF91CF9108959F92AF92BF92CF92DF92DF
:102FF000EF92FF920F931F93CF93DF93CDB7DEB77E
:1030000061970FB6F894DEBF0FBECDBF8C0185E08F
:10301000F801DE011D9601900D928A95E1F7F80105
:10302000E2809091450260914602409148025091A1
:1030300049024115510531F06F3F31F481E09F3F66
:1030400019F403C081E001C080E0F82FF1709F2ED9
:1030500080FD1AC1F80130812181C380D48085E4CC
:10306000A82E82E0B82EF0904702F601E41BF50B83
:10307000FF2009F4C6C080914A02E83CF10508F03F
:1030800091C0482F407F09F050C0621311C09313C4
:103090000FC0FE2CE1100CC08F70806180934A023B
:1030A000C5010E94B80480914A02F801858329C1B4
:1030B000CD2831F02F3F31F481E03F3F19F403C0B8
:1030C00081E001C080E080FD03C081E08E2502C068
:1030D00080E090E0F82FF170FF2E80FF1CC08091FF
:1030E0007C0240914B0256E0841709F4E8C090E05E
:1030F000589FF001599FF00D1124E45BFD4F618151
:10310000261306C06081631303C06281E61203C008
:1031100001968770E9CFFE2CEE2009F4F2C0809171
:103120004A02816080934A0249C0621306C0931329
:1031300004C0E11002C0F80186C0C8010E9400036B
:10314000882351F1EE2041F120914A02822F82958D
:103150008F7090E0029774F0809145029091460242
:1031600098878F831986DB86CA862C87CE010796BF
:103170000E94B80486E0F801A5E4B2E001900D9247
:103180008A95E1F70E940C170AC06217C9F0C801BE
:103190000E94000381111EC0C8010E94B804FF24D0
:1031A000F394AFC0482F407F81F785E492E00E94FE
:1031B000B80486E0F50111928A95E9F7F12CA1C0D7
:1031C0009313E5CFE110E3CFF8018583C8010E9496
:1031D000B80454C0EE2001F320914A02822F829558
:1031E0008F7090E0029734F28091450290914602F0
:1031F0009A8389831B82DD82CC822E83CE01019645
:10320000B7CFE83CF105D0F5FE2CEE2029F2621391
:1032100027C0931325C020914A0220FD18C0822F99
:1032200082958F70482F50E04115510581F0F801CB
:1032300025834F30510541F08F5F982F9295907FF5
:10324000822F8F70892B8583C8010E94B80486E085
:10325000F801A5E4B2E001900D928A95E1F751C022
:10326000C8010E940003811185CF80914A028160CC
:1032700080934A02C8010E94B80443C086E0F50169
:1032800011928A95E9F73DC0EE2009F485CFC80177
:103290000E940003F82E882309F47ECF86E0F8010F
:1032A000A5E4B2E001900D928A95E1F78091450284
:1032B000909146020E94D4170E940C1722C03D87AD
:1032C0002E878D859E850E94D417292F22952F70D9
:1032D000223028F49F7039F0811105C00BC02430D2
:1032E00028F49F7049F4805E883020F0C8010E9465
:1032F000B8049F2CF92C05C0F8019581907F99F7AF
:10330000F9CF8F2D61960FB6F894DEBF0FBECDBFFB
:10331000DF91CF911F910F91FF90EF90DF90CF90B1
:10332000BF90AF909F90089520E1929F800D11244F
:10333000682F669566956695982F977085E0689FCB
:10334000B001112440E050E080E0FB01E40FF51FE4
:10335000ED5EFD4F208130E0092E02C036952795A5
:103360000A94E2F721703327042E01C0220F0A9439
:10337000EAF7822B4F5F5F4F4530510531F70895D3
:1033800020E1929F800D1124E82FE695E695E695C1
:10339000877051E001C0550F8A95EAF785E0E89FF4
:1033A000F0011124ED5EFD4F20E030E070E040813F
:1033B000CB01022E02C0969587950A94E2F78170A0
:1033C000819584278523842781932F5F3F4F253064
:1033D000310569F708956093C8017093C90180931E
:1033E000CA019093CB010C942C030F931F9341E0DF
:1033F00050E060E070E004C0440F551F661F771F67
:103400008A95D2F740955095609570958091C80146
:103410009091C901A091CA01B091CB018A019B0191
:10342000082319232A233B23C901B8011F910F91B7
:103430000C94EB1920917D028095822380937D026C
:10344000982F977041F430E0482F082E000C550B50
:103450002417350721F49091900192FF07C08595BC
:10346000859585950E94F51910927D0208950F9318
:103470001F9341E050E060E070E004C0440F551F2E
:10348000661F771F8A95D2F78091C8019091C90174
:10349000A091CA01B091CB018A019B01082B192B85
:1034A0002A2B3B2BC901B8011F910F910C94EB19EA
:1034B00060938202709383028093840290938502CA
:1034C0000C942C0308950F931F93CF93DF9300D098
:1034D0001F92CDB7DEB78C018091900281110AC096
:1034E0009E012F5F3F4F4FEF6FEF0E948A1E8A8130
:1034F00080939002F8018481813051F028F082306D
:1035000061F4409190020AC08091900240E007C0AF
:103510006091900240E080E003C040E080E060E025
:103520000E94231EF801848190E0019663E070E020
:103530000E94402184830F900F900F90DF91CF91D4
:103540001F910F910895CF93DF93EC01E5E9F1E02E
:10355000438162818C810E94201F8C818F5F8C83CC
:10356000DF91CF910895CF93DF93EC01EC81F0E0F0
:10357000E859FC4F4491E5E9F1E0628181810E94C4
:10358000201F8C818F5F8C83DF91CF9108951F92D4
:103590000F920FB60F9211248F939F93AF93BF9307
:1035A00080918B0190918C01A0918D01B0918E0141
:1035B0004196A11DB11D80938B0190938C01A09326
:1035C0008D01B0938E01BF91AF919F918F910F901C
:1035D0000FBE0F901F901895209100012223C9F073
:1035E00020918F0127FF15C0262F26952695269519
:1035F0002E31C8F4FC01E20FF11D677081E090E00C
:1036000001C0880F6A95EAF78095928189238283A9
:103610000895FC0106962281621301C01282319640
:10362000E817F907C1F70895209100012223C1F09E
:1036300020918F0127FF14C0262F269526952695C9
:103640002E3130F5FC01E20FF11D677081E090E052
:1036500001C0880F6A95EAF79281892B82830895C9
:10366000FC0132962FEF30E04191641789F02F3F33
:1036700019F4411101C0232F3F5F3630A9F72F3FC6
:1036800039F0FC01E20FF11D27FDFA9562830895E0
:1036900008952091B6023091B7022817390771F0CA
:1036A0009093B7028093B602E091B402F091B50214
:1036B000309721F00084F185E02D09940895209140
:1036C000B2023091B3022817390771F09093B30218
:1036D0008093B202E091B402F091B502309721F0EC
:1036E0000680F781E02D09940895E091B402F091ED
:1036F000B502309721F00190F081E02D099480E02F
:103700000895EF92FF920F93CF93DF93C42FD22FA0
:10371000FC0182818823D1F04093B1020E94021102
:103720009093B0028093AF0280E28C0F883008F053
:1037300078C0C77081E001C0880FCA95EAF7DF91B1
:10374000CF910F91FF90EF900C945A038091B102AA
:10375000481356C02091AF023091B0024FB7F89491
:1037600080918B0190918C01A0918D01B0918E017F
:103770004FBF821B930B883C910508F041C0CD17C9
:10378000C9F080E28C0F883040F4C77081E001C03E
:10379000880FCA95EAF70E944F0380E28D0F8830A8
:1037A00048F481E09D2F977001C0880F9A95EAF741
:1037B0000E945A03093319F0E12CF12C03C080E573
:1037C000E82EF12C802F0E949603E114F10451F0B1
:1037D0008FE99FE00197F1F700C0000091E0E91A3E
:1037E000F108F3CF802F0E94640380E28D0F8830B0
:1037F000C0F4D77081E001C0880FDA95EAF70AC0FB
:1038000080E28C0F883068F4C77081E001C0880FB7
:10381000CA95EAF7DF91CF910F91FF90EF900C944A
:103820004F03DF91CF910F91FF90EF90089590910A
:10383000950190FF04C09695981740F003C0811140
:1038400005C090E0961710F40C945B2061E00C9496
:103850001720882311F0FA0101C0FB01099460913F
:103860009501669570E04BE050E08BE091E00E949E
:103870009721892B19F481E080938D020E94021117
:10388000909387028093860208958091950180FF2E
:103890000AC06E9A8EB18F7B9EB190642FB7F89458
:1038A000E1E9F2E00BC0E1E9F2E01182108212825C
:1038B000339632E0EF3AF307C1F7EBCF32E0EF3A5D
:1038C000F30789F0319148E09EB9000000C037FF4E
:1038D0008EB9330F000000C000C000C08EB900C018
:1038E0004A9591F7EBCF2FBF8FE594E00197F1F761
:1038F00000C000000895EF92FF920F931F93CF93A3
:10390000DF938C01C1E9D2E0E12CF12CF801848134
:10391000F5E0EF16F1041CF4882339F002C08111A0
:1039200004C09E014091980102C09E0140E0609158
:103930009701809196010E948A1E8FEFE81AF80A7B
:1039400023969AE0E916F10409F70E94451CF80154
:10395000848190E00196817099278483DF91CF91D3
:103960001F910F91FF90EF9008958F929F92AF92C9
:10397000BF92CF92DF92EF92FF920F931F93CF935C
:10398000DF93EC014C81042F10E09801D8010E94D4
:1039900062219B01AC010E9478216B017C01E0E275
:1039A000F0E0E01BF10BA5E5B0E09B01AC010E944B
:1039B00078214B015C019F01DF010E945A219B018C
:1039C000AC010E9483219B01AC012C0D3D1D4E1DBD
:1039D0005F1DC501B4010E94B420822FF22E99E22E
:1039E000921728F093E0299F900111240DC025E53E
:1039F00030E0281B3109C901880F991F280F391F92
:103A000037FF02C02F5F3F4F35952795122F109536
:103A100091E9C92E92E0D92E00E085E5E82EEF1855
:103A200001FD02C08E2D01C08F2D9601412F6091A6
:103A300097010E948A1E0F5F83E0C80ED11C0A30D6
:103A400079F70E94451C8C81811102C091E003C06E
:103A5000803219F49FEF9093180190911801890F0B
:103A60008C83DF91CF911F910F91FF90EF90DF90AA
:103A7000CF90BF90AF909F908F9008950F931F931A
:103A8000CF93DF93C1E9D2E0FE011182108212824E
:103A9000339682E0EF3AF807C1F700E010E080913A
:103AA0008F02082E000C990B0817190794F08091CB
:103AB0001701082E000C990B8017910754F09E01F6
:103AC0004091980160919701809196010E948A1E11
:103AD00003C0198218821A820F5F1F4F23960A3083
:103AE0001105E9F60E94451C8091160190918F0204
:103AF000980F90938F0220911701280F20931701A0
:103B0000121614F499301CF0819580931601DF9100
:103B1000CF911F910F910895BF92CF92DF92EF92B4
:103B2000FF920F931F93CF93DF93FC01828180FF5D
:103B300003C0DD24DA9402C0DD24D39401E912E04D
:103B4000C0E0D0E02AE0B22EF80111821082128289
:103B500094E0E92EF12CC12C80918E028C0D8B30DB
:103B60002CF06B2D0E941E21892F02C087FD865FDD
:103B7000082E000C990BC817D90791F48091980171
:103B80008E9DA0018F9D500D1124559547955595FB
:103B90004795980160919701809196010E948A1E35
:103BA000CD0CF1E0EF1AF108B9F621960D5F1F4F29
:103BB000CA30D10549F60E94451C80918E0291E0E1
:103BC000D91206C0811102C089E007C0815005C02A
:103BD00090E00196BE010E94402180938E02DF9109
:103BE000CF911F910F91FF90EF90DF90CF90BF90FA
:103BF0000895EF92FF921F93CF93DF93EC0181E939
:103C0000E82E82E0F82E10E08C8197014091980117
:103C100060919701810F0E948A1E175E83E0E80E73
:103C2000F11C1A3F89F70E94451C9A818C8190FFF4
:103C300002C08F5F01C081508C83DF91CF911F91B3
:103C4000FF90EF9008959091950190FF0CC0E1E9ED
:103C5000F2E0818360834283339692E0EF3AF90782
:103C6000C1F70C94451C089580919501282F269545
:103C700030E02115310519F48170826005C02532CC
:103C8000310524F081708864809395010895CF9266
:103C9000DF92EF92FF926B017C010E94341EB7010C
:103CA000A60188E090E0FF90EF90DF90CF900C9419
:103CB000FC2080919901882319F08150809399010B
:103CC0006091950170919601809197019091980172
:103CD0000C94471E80919901833018F48F5F809374
:103CE0009901609195017091960180919701909151
:103CF00098010C94471EE5E9F1E083E0808311828E
:103D00008FEF8283838314826081718182819381AA
:103D10000C94471EAF92BF92CF92DF92EF92FF9228
:103D20000F931F93CF93DF93E82EF62EE901E42F34
:103D3000F0E0611106C0E859FB4FE4914E2F2E2FA1
:103D400071C0062F10E0E859FB4F4491F42FC42EA8
:103D5000D12C26E0829FC00111242FEF30E0B90161
:103D60000E942C215BEA5603C001579F900D11243D
:103D70008E0D911D8E0D911D582F550F580FD90185
:103D8000A01BB10BAC9DC001AD9D900DBC9D900DD5
:103D90001124E92FF59ED0011124AB2FBB27790107
:103DA000EA1AFB0AEC9CD001ED9CB00DFC9CB00D16
:103DB00011245901A51AB108A09E7001A19EF00C12
:103DC000B09EF00C1124EF2CFF242E193F092C9DDE
:103DD00080012D9D100D3C9D100D1124212F62306E
:103DE000710591F048F461157105E1F061307105DC
:103DF000B9F4242F4B2F16C06430710569F040F0E0
:103E00006630710579F00CC0242F492FE12F0AC0CC
:103E1000492FEF2F2B2F06C0292FE42F412F02C04F
:103E2000292FEB2F49832883EA83DF91CF911F91BC
:103E30000F91FF90EF90DF90CF90BF90AF900895DB
:103E4000CF93DF9300D01F92CDB7DEB7909195014D
:103E500090FF0AC09E012F5F3F4F0E948A1E4B8138
:103E600069818A810E94231E0F900F900F90DF912D
:103E7000CF9108955F926F927F928F929F92AF92AF
:103E8000BF92CF92DF92EF92FF920F931F93CF9347
:103E9000DF9300D01F92CDB7DEB7182F762E042FF8
:103EA000622E9091950190FF6DC0E92FE695AE2F9F
:103EB000B0E0AD59BE4F8C9180938C029E7F9230C2
:103EC00061F49E012F5F3F4F812F0E948A1E4B811C
:103ED00069818A810E94231E43C0823019F40091B7
:103EE00098013EC0863019F41091960139C089308E
:103EF000D9F38931A9F5E9518E2F8170582EE695B5
:103F0000F0E0E859FA4FA590B49081E9C82E82E01C
:103F1000D82EE12CF12CBB249AE0892E912CAE9C5A
:103F2000C001AF9C900DBE9C900D1124B4010E9465
:103F30002C21812F511002C0860F01C0861B9601D3
:103F4000402F672D0E948A1E8FEFE81AF80A83E03F
:103F5000C80ED11C8AE0E816F10409F70E94451C3E
:103F6000109396017092970100939801662051F08A
:103F700060919501709196018091970190919801BF
:103F80000E94471E0F900F900F90DF91CF911F91CD
:103F90000F91FF90EF90DF90CF90BF90AF909F90E8
:103FA0008F907F906F905F900895E5E9F1E04381F5
:103FB00021E1421B08F440E021E0628181810C9400
:103FC0003A1FE5E9F1E0438121E1420F08F44FEFA8
:103FD00021E0628181810C943A1FE5E9F1E0628180
:103FE00021E1621B08F460E021E0438181810C94AF
:103FF0003A1FE5E9F1E0628121E1620F08F46FEF19
:1040000021E0438181810C943A1FE5E9F1E081814F
:1040100021E04381628188500C943A1FE5E9F1E088
:10402000818121E043816281885F0C943A1F9091E5
:10403000950190FF36C09170811102C0926006C058
:10404000853210F0986402C0880F982B90939501E8
:10405000662351F0609195017091960180919701CE
:10406000909198010E94471E60919501669570E0BD
:104070004BE050E08BE091E00E949721892B19F0F2
:1040800010928D0202C00E942F1C81E08093890251
:1040900020E04091980160919701809196010C94E5
:1040A0003A1F0895809195018695815009F484E224
:1040B00061E00C9417208091950186958F5F853281
:1040C00008F081E061E00C9417201F920F920FB668
:1040D0000F9211248F939F93EF93FF939091FB0284
:1040E0008091FA02981304C088E98093C9000CC03B
:1040F0008091FA028F5FE82FF0E0E450FD4F90814D
:104100009093CE008093FA02FF91EF919F918F914F
:104110000F900FBE0F901F9018951F920F920FB621
:104120000F9211242F938F939F93EF93FF9390916E
:10413000CE008091B9028F5F803408F080E020913A
:10414000B802821739F0E82FF0E0E654FD4F908373
:104150008093B902FF91EF919F918F912F910F90D2
:104160000FBE0F901F901895A1E21A2EAA1BBB1B21
:10417000FD010DC0AA1FBB1FEE1FFF1FA217B30733
:10418000E407F50720F0A21BB30BE40BF50B661F49
:10419000771F881F991F1A9469F76095709580950D
:1041A00090959B01AC01BD01CF010895F999FECF17
:1041B00092BD81BDF89A992780B50895A6E1B0E037
:1041C00044E050E00C941021A8E1B0E042E050E05F
:1041D0000C941021262FF999FECF92BD81BDF89A3B
:1041E000019700B4021639F01FBA20BD0FB6F8943B
:1041F000FA9AF99A0FBE08950396272F0E94EB2092
:104200000E94EA20252F0E94EB20242F0C94EB2003
:104210000196272F0E94EB200C94EA20DC01CB01B1
:10422000FC01F999FECF06C0F2BDE1BDF89A3196C6
:1042300000B40D9241505040B8F7089587FB082E06
:10424000062687FD819567FD61950E948B210EF4FE
:10425000919507FC81950895AA1BBB1B51E107C0EE
:10426000AA1FBB1FA617B70710F0A61BB70B881F06
:10427000991F5A95A9F780959095BC01CD01089595
:1042800097FB072E16F4009407D077FD09D00E9403
:104290002C2107FC05D03EF4909581959F4F089501
:1042A000709561957F4F0895EE0FFF1F0590F49173
:1042B000E02D09940E946221332312F48A1B9B0B88
:1042C0000C947321A29FB001B39FC001A39F700DF6
:1042D000811D1124911DB29F700D811D1124911D0E
:1042E00008950E946221B7FF0895821B930B0895E1
:1042F0000E946221A59F900DB49F900DA49F800DF8
:10430000911D11240895B7FF0C9478210E94782103
:10431000821B930B0895991B79E004C0991F96178F
:1043200008F0961B881F7A95C9F780950895FC01BF
:104330004150504030F001900616D1F73197CF012F
:0C4340000895882799270895F894FFCF6E
:10434C0001FB0B310CFA0B2D0C290C01191A1B1C3F
:10435C001D1E1F202122010201818283E200E9003F
:10436C00EA00B500B600B700CD008301CC008A018D
:10437C009201940121022302240225022602270223
:10438C002A02B300B4006F007000F4F5F6F7313375
:10439C0032369400FF0100010000FFFF0000010015
:1043AC0001FF0000010202020206060609090909C2
:1043BC0009090F0F0F0F0F0F1515151819191919CA
:0843CC0019191919191923240C
:00000001FF
